:100000000C946C030C9494030C9494030C9494033C
:100010000C9494030C9494030C9494030C94940304
:100020000C9494030C9494030C94690A0C94D80ACD
:100030000C9494030C9494030C9494030C949403E4
:100040000C9494030C9494030C9494030C949403D4
:100050000C9494030C9494030C9494030C940A0D44
:100060000C9494030C9494030C9494030C949403B4
:100070000C9494030C9494030C9494030C949403A4
:100080000C9494030C9494030C9494030C94940394
:100090000C9494030C9494030C9494030C94940384
:1000A0000C9494030C9494030C94940300000000AB
:1000B000003E5B4F5B3E3E6B4F6B3E1C3E7C3E1CEE
:1000C000183C7E3C181C577D571C1C5E7F5E1C0034
:1000D000183C1800FFE7C3E7FF0018241800FFE7EB
:1000E000DBE7FF30483A060E2629792926407F05AE
:1000F0000507407F05253F5A3CE73C5A7F3E1C1CC4
:1001000008081C1C3E7F14227F22145F5F005F5F83
:1001100006097F017F006689956A6060606060946F
:10012000A2FFA29408047E040810207E2010080874
:100130002A1C08081C2A08081E101010100C1E0C7F
:100140001E0C30383E3830060E3E0E060000000011
:100150000000005F00000007000700147F147F14F8
:10016000242A7F2A1223130864623649562050003D
:1001700008070300001C2241000041221C002A1C29
:100180007F1C2A08083E0808008070300008080814
:100190000808000060600020100804023E51494534
:1001A0003E00427F400072494949462141494D3352
:1001B0001814127F1027454545393C4A49493141B9
:1001C000211109073649494936464949291E000087
:1001D00014000000403400000008142241141414DC
:1001E0001414004122140802015909063E415D59C8
:1001F0004E7C1211127C7F494949363E41414122D1
:100200007F4141413E7F494949417F090909013EFA
:10021000414151737F0808087F00417F4100204021
:10022000413F017F081422417F404040407F021C33
:10023000027F7F0408107F3E4141413E7F0909094A
:10024000063E4151215E7F09192946264949493216
:1002500003017F01033F4040403F1F2040201F3FDC
:100260004038403F63140814630304780403615961
:10027000494D43007F4141410204081020004141A3
:10028000417F04020102044040404040000307084F
:100290000020545478407F2844443838444444284B
:1002A000384444287F385454541800087E090218F2
:1002B000A4A49C787F0804047800447D400020407A
:1002C000403D007F1028440000417F40007C0478BE
:1002D00004787C080404783844444438FC18242406
:1002E0001818242418FC7C08040408485454542486
:1002F00004043F44243C4040207C1C2040201C3C03
:100300004030403C44281028444C9090907C4464F9
:10031000544C44000836410000007700000041368C
:10032000080002010204023C2623263C1EA1A16112
:10033000123A4040207A3854545559215555794144
:100340002154547841215554784020545579400C1B
:100350001E527212395555555939545454593955FC
:100360005454580000457C410002457D420001453F
:100370007C40F0292429F0F0282528F07C545545AC
:10038000002054547C547C0A097F4932494949323F
:100390003248484832324A4848303A4141217A3A54
:1003A00042402078009DA0A07D39444444393D401E
:1003B00040403D3C24FF2424487E4943662B2FFCCB
:1003C0002F2BFF0929F620C0887E09032054547979
:1003D000410000447D413048484A32384040227A4A
:1003E000007A0A0A727D0D19317D2629292F2826C7
:1003F0002929292630484D402038080808080808CF
:100400000808382F10C8ACBA2F102834FA00007B27
:10041000000008142A142222142A1408950022002D
:1004200095AA005500AAAA55AA55AA000000FF00E7
:10043000101010FF00141414FF001010FF00FF1024
:1004400010F010F0141414FC001414F700FF000056
:10045000FF00FF1414F404FC141417101F10101FD5
:10046000101F1414141F00101010F0000000001FC3
:10047000101010101F10101010F010000000FF10CE
:100480001010101010101010FF10000000FF1400CA
:1004900000FF00FF00001F10170000FC04F41414FC
:1004A0001710171414F404F40000FF00F7141414C8
:1004B00014141414F700F7141414171410101F1048
:1004C0001F141414F4141010F010F000001F101F6B
:1004D0000000001F14000000FC140000F010F010D9
:1004E00010FF10FF141414FF141010101F00000050
:1004F00000F010FFFFFFFFFFF0F0F0F0F0FFFFFF54
:100500000000000000FFFF0F0F0F0F0F38444438AA
:10051000447C2A2A3E147E02020606027E027E02E5
:1005200063554941633844443C04407E201E200604
:10053000027E020299A5E7A5991C2A492A1C4C7241
:1005400001724C304A4D4D303048784830BC625AC8
:10055000463D3E494949007E0101017E2A2A2A2A58
:100560002A44445F444440514A444040444A514034
:100570000000FF0103E080FF000008086B6B0836F5
:1005800012362436060F090F060000181800000066
:100590001010003040FF0101001F01011E00191D55
:1005A0001712003C3C3C3C0000000000F0F89C8E20
:1005B0008783878E9CF8F00000FEFF03030303038C
:1005C000070EFCF80000FEFF0303030303070EFC05
:1005D000F80000FFFF00000000000000FFFF000027
:1005E000FEFF8383838383C7EE7C380000F8FC0E14
:1005F00007030303070EFCF800003F7FE0C0808084
:10060000C0E07F3FFFFF01010101010101FFFF0089
:1006100000FFFF0C0C0C0C1C3E77E3C100007FFFB9
:10062000C0C0C0C0C0E0703F1F00001F3F70E0C0EE
:10063000C0C0E0703F1F00007FFFC1C1C1C1C1E366
:10064000773E1C00001F3F70E0C0C0C0E0703F1F3D
:10065000000000000001FFFF01000000D5F08D1434
:10066000A1C881CFD9F1AF2000080B00020202001F
:100670000009040000010202000005240010010529
:100680002401010104240206052406000107058156
:100690000310004009040100020A000000070502DF
:1006A0000240000007058302400000040309041211
:1006B000010002EF020140412336800001010203E4
:1006C0000141726475696E6F204C4C430041726445
:1006D00075626F790000870D11241FBECFEFDAE03D
:1006E000DEBFCDBF11E0A0E0B1E0E4E3FBE202C079
:1006F00005900D92A837B107D9F726E0A8E7B1E039
:1007000001C01D92A430B207E1F713E0CCE6D3E0BC
:1007100004C02197FE010E946E15CB36D107C9F7A0
:100720000E94A40D0C9498150C94000090E0E0EB4E
:10073000F1E091119FEF8FEF9193919391939193AA
:100740008150D0F70895E0EBF1E0A0E0B8E0008040
:100750000EBC8111012C1197A0FDFDCF0192B9F7BC
:100760000DB408952091AA01821740F5621730F563
:1007700090E0629F800D911D1124AC01092E000CA8
:10078000660B770B23E076956795579547952A95E5
:10079000D1F7E091AE01F091AF01E40FF51F208198
:1007A00030E08095909587709927A90102C05595F2
:1007B00047958A95E2F7CA018170089580E008950F
:1007C000FC018091A801882311F13FB7F89482E0E1
:1007D0008093E9002091F200822F90E0181619060C
:1007E00014F481E090E0882339F0289844E640939F
:1007F000A7014091F1004083222339F02091F200BB
:10080000211103C02BE62093E8003FBF08958FEF2E
:100810009FEF08952FB7F89483E08093E9009091BB
:10082000E800892F807295FF04C09091F20080E467
:10083000891B2FBF089580919F0181110DC082E017
:1008400080939B0184E080939C0110929E01109202
:100850009D0181E080939F018BE991E00895CF9302
:10086000DF931F92CDB7DEB76983DC01ED91FC9178
:100870000280F381E02D41E050E0BE016F5F7F4FC9
:1008800009950F90DF91CF91089583E08093E9005F
:100890008091F200882319F08AE38093E80008959C
:1008A0000E940A0490E00895CF93DF931F92CDB782
:1008B000DEB7FC018485958597FD08C02FEF3FEFDB
:1008C000358724870F90DF91CF910895CE0101964F
:1008D0000E94E003019719F4898190E0F3CF8FEF34
:1008E0009FEFF0CF0F931F93CF93DF931F92CDB75E
:1008F000DEB78C01FC018485958597FF0BC0CE0186
:1009000001960E94E003019771F4898190E0F8015B
:1009100095878487F801848595850F90DF91CF9125
:100920001F910F9108958FEF9FEFF1CFFC01848508
:10093000958597FD0BC09FB7F89482E08093E900FE
:100940008091F2009FBF90E0019608959FB7F894C0
:1009500082E08093E9008091F2009FBF90E00895CB
:10096000409195015091960120919301309194010D
:1009700042175307B4F49091E8009570E1F3909119
:10098000E80092FD19C08093F1008091950190914B
:10099000960101968F739927892B19F48EEF809316
:1009A000E8008091950190919601019690939601AF
:1009B0008093950181E0089580E00895DF92EF92A1
:1009C000FF920F931F93CF93DF93D82E8A01EB01F1
:1009D0007B01E40EF51ECE15DF0559F0D7FE12C0DF
:1009E000FE0184910E94B00421968111F4CF0FEF93
:1009F0001FEFC801DF91CF911F910F91FF90EF90F2
:100A0000DF9008958881EECF0F931F93CF93DF93EC
:100A10001F92CDB7DEB782E0898342E450E069E6F9
:100A200076E080E80E94DE040E941B04DC0112963E
:100A30000D911C910115110589F0D801ED91FC91E2
:100A40000280F381E02DBE016F5F7F4FC8010995E1
:100A500097FD04C0F80100851185ECCF89810F90C6
:100A6000DF91CF911F910F910895615030F0209147
:100A7000F100FC0120830196F8CF289884E680934A
:100A8000A7010895FC010E94D905319728F068510B
:100A90007C4F8F4F9F4FF9CFAB01FC010E94D905CE
:100AA000641775078E079F07C8F308958F929F926A
:100AB000AF92BF92CF92DF92EF92FF920F931F936C
:100AC000CF93DF936C017B018A0180912101882300
:100AD00009F45AC08091A801882309F455C0809177
:100AE0009A0180FF05C08091E00082608093E00061
:100AF000E801B12C8AEFA82E93E0892E2AE3922EEA
:100B0000209711F4BB20C9F10E940A04811108C08A
:100B1000AA94AA20C9F181E090E00E944205F0CF9A
:100B20008C171D0611F00CF08C2F9FB7F894809253
:100B3000E9002091E80025FD02C09FBFE1CF282FEA
:100B400030E0C21BD30BF701815020F0419140935C
:100B5000F100FACFE20EF31EBB2021F09092E800E4
:100B6000B12CEBCF8091E80085FDE7CF9092E800B3
:100B7000BB24B394209709F3F3CF5D9884E6809368
:100B80009901101611063CF081E090E0F601938384
:100B9000828310E000E0C801DF91CF911F910F9197
:100BA000FF90EF90DF90CF90BF90AF909F908F908D
:100BB0000895AFE8B1E02FB7F8947D918D919C91A5
:100BC00066B52FBFA89B05C06F3F18F47F5F8F4F9E
:100BD0009F4F22E0660F771F881F991F2A95D1F734
:100BE0000895AF92BF92CF92DF92EF92FF920F9350
:100BF0001F93CF93DF936C017B018B01040F151FB3
:100C0000EB015E01AE18BF08C017D10759F069911A
:100C1000D601ED91FC910190F081E02DC60109957E
:100C2000892B79F7C501DF91CF911F910F91FF902B
:100C3000EF90DF90CF90BF90AF9008950F931F93E8
:100C4000FC01162FA42F2081318142815381B0E015
:100C50000E942415610F711D811D911D8B019C0146
:100C600083E036952795179507958A95D1F70680E5
:100C7000F781E02DE00FF11F208130E06095709545
:100C800067707727C90102C0959587956A95E2F745
:100C900081701F910F9108952F923F924F925F9212
:100CA0006F927F928F929F92AF92BF92CF92DF927C
:100CB000EF92FF920F931F93CF93DF9300D000D05A
:100CC00000D0CDB7DEB75C014B01542EDC016C9037
:100CD000C12CD12C7601E42FF0E0FA83E98303E004
:100CE00010E02BEA422E33E0332ECC82C614C8F03B
:100CF00026960FB6F894DEBF0FBECDBFDF91CF9121
:100D00001F910F91FF90EF90DF90CF90BF90AF9029
:100D10009F908F907F906F905F904F903F902F901B
:100D200008952C2C26941B828C8180958170782EBE
:100D30004C816B81C4010E941E06E82F811152C0B4
:100D4000F7E0F515A8F0E981FA81E755F94F0C9421
:100D50006E15B106B706FE06080715071C07330710
:100D60004607EB812C81E20FE095E17001C0E72D91
:100D7000D5016D917D918D919C91A70196010E9465
:100D80003E15AB01BC01BB814B0F511D611D711D97
:100D90009A01209530952770332781E090E0022E4C
:100DA00001C0880F0A94EAF793E076956795579506
:100DB00047959A95D1F7D50116960D90BC91A02D27
:100DC000BE83AD83A40FB51F3C91432F50E002C0FA
:100DD000559547952A95E2F74170E41709F46AC0E2
:100DE000832B8C93BB81BF5FBB83B61508F4A0CF68
:100DF000EFEFCE1ADE0AEE0AFE0A77CF8B81632D63
:100E00000E944E15E1E0992309F4B2CFE0E0B0CFA3
:100E1000AB818A2F90E08C0D9D1DB8010E945A1560
:100E2000E1E0892B09F4A4CFF1CFBB81B49DE12D82
:100E30001124E695E20D98CFEB812E2F30E02C9D0A
:100E4000C0012D9D900D3C9D900D11249C012170A1
:100E50003327B8010E945A15280F391FE1E0232BD0
:100E600009F486CFD3CFFB818F2F90E08C9DF001CA
:100E70008D9DF00D9C9DF00D1124CF01B8010E94B5
:100E80005A15E80FF91FE095F0956FCF8B81282F49
:100E900030E02C9DC0012D9D900D3C9D900D1124A6
:100EA000B8010E945A15EB81AC81EA0FE80FF92FC7
:100EB000F11DE9CF8095832394CFCF93DF93FC017D
:100EC000D62FA42FC22F2081318142815381B0E0DF
:100ED0000E942415AB01BC014D0F511D611D711DF8
:100EE0009A01209530952770332781E090E001C06A
:100EF000880F2A95EAF793E0769567955795479579
:100F00009A95D1F70680F781E02DE40FF51F208137
:100F1000CC2329F0822B8083DF91CF910895809597
:100F20008223F9CFEF92FF920F93CF93DF937B0150
:100F3000C42FD22F202F4D2F6C2F0E945D0721E050
:100F40004D2F6C2FC701DF91CF910F91FF90EF9044
:100F50000C945D074F925F926F927F928F929F9257
:100F6000AF92BF92CF92DF92EF92FF920F931F93B7
:100F7000CF93DF93EC017B01188188E0489F40010B
:100F80001124822A092C000CAA08BB08D501C4012F
:100F9000FAE0CF2ED12C2C013D01440C551C661CCF
:100FA000771C9C01AD01E9E056954795379527954B
:100FB000EA95D1F7A7E3B5E00E942415DC01CB0147
:100FC00084259525A625B72521E0C21AD10819F751
:100FD000240135016AE0440C551C661C771C6A9597
:100FE000D1F7482A592A6A2A7B2A82E1482684E5D1
:100FF0005826B12CA12CD301C2010A2C04C0B695ED
:10100000A795979587950A94D2F7082F01702A2DF6
:1010100048E0B701CE010E9492072FEFA21AB20A50
:1010200086E0A816B10439F7D301C20126E0B695CF
:10103000A795979587952A95D1F7082F017027E0F6
:1010400048E0B701CE010E949207D301C20137E008
:10105000B695A795979587953A95D1F7082F017082
:1010600028E048E0B701CE010E949207052D0170EB
:1010700028E047E0B701CE010E94920749E0A42E84
:10108000B12C55E0952ED301C2010A2C04C0B695AF
:10109000A795979587950A94D2F7082F017028E0B5
:1010A000492DB701CE010E9492079A942FEFA21A00
:1010B000B20A8FEF9812E7CFBB24B394D301C201D9
:1010C0000C2C04C0B695A795979587950A94D2F7EE
:1010D000082F0170412F4B1928E0B701CE010E9463
:1010E00092072FEFC21AD20AB39489E0B812E6CF62
:1010F00088E0C82ED12C97E0B92ED301C2010C2C68
:1011000004C0B695A795979587950A94D2F7082FAE
:101110000170212F2B1948E0B701CE010E949207E0
:10112000BA942FEFC21AD20AB110E7CF28EF210FDD
:1011300001E048E0B701CE010E949207DF91CF9114
:101140001F910F91FF90EF90DF90CF90BF90AF90E5
:101150009F908F907F906F905F904F9008952F9207
:101160003F924F925F926F927F928F929F92AF9237
:10117000BF92CF92DF92EF92FF920F931F93CF9384
:10118000DF9300D000D000D0CDB7DEB73C015B01CB
:10119000342E122FFC01C0804CEF5FEF5E834D8335
:1011A000832C912CD12C422E512C8CEFE82EFF2435
:1011B000FA948D819E81840D951D9A8389832D805B
:1011C000210EED81FE81F195E195F109FC83EB8320
:1011D000C4018E0D9F1D97FD26C08C159D051CF525
:1011E00089819A818C159D05F0F4C701F7FE04C032
:1011F000882799278E199F092D813E8137FF02C0CC
:101200002B813C81821793070CF4C901823019F0BD
:1012100001E0843009F400E0222D432D4E0DB5018C
:10122000C3010E9492079FEFE91AF90AE5E0EE1662
:10123000F10471F64D815E814F5F5F4F5E834D8398
:101240004530510509F0B1CF26960FB6F894DEBFB0
:101250000FBECDBFDF91CF911F910F91FF90EF9007
:10126000DF90CF90BF90AF909F908F907F906F90C6
:101270005F904F903F902F9008954F925F926F92A2
:101280007F928F929F92AF92BF92CF92DF92EF9216
:10129000FF92CF93DF93DC012150CD90DD90ED9054
:1012A000FC901397912C812CA22E022E000CBB08CF
:1012B000C6018095909527FF14C0CD92DD92ED92E6
:1012C000FC921397DF91CF91FF90EF90DF90CF903A
:1012D000BF90AF909F908F907F906F905F904F9056
:1012E00008952601370133E0769467945794479424
:1012F0003A95D1F71696ED91FC911797E40DF51DEF
:10130000E501C819D9092A013B0104C07694679404
:1013100057944794CA95D2F731E043225524662466
:101320007724EC01C819D909C770DD2704C0440C23
:10133000551C661C771CCA95D2F73081432A40821F
:1013400021503FEFC31AD30AE30AF30A3FEF831A8F
:10135000930AB1CFE0EDE80FEA3010F48E2F089534
:101360009FEB980F9A3110F48753089580528B3178
:1013700030F4E82FF0E0EE5DFE4F808108958FEFAE
:10138000089590E00C9442058FB18095807F669B14
:1013900088601C9B8460089590918701982329F4AC
:1013A00090918801982381E009F480E0089580E01D
:1013B0000C94A30380389105B8F460347105A0F44F
:1013C00090E121E061FD24E060FD220F62FD2295A5
:1013D000687F969FD0011124A80FA055BE4F0C9096
:1013E000022A40FF02260C9208958F929F92AF929C
:1013F000BF92CF92DF92EF92FF920F931F93CF9302
:10140000DF936D3089F0C0908201D09083016A3003
:10141000D1F4109285011092840188E0C80ED11C8D
:10142000D0928301C092820181E090E0DF91CF9160
:101430001F910F91FF90EF90DF90CF90BF90AF90F2
:101440009F908F9008950091840110918501E5E0AF
:101450006E9FE0011124C455DF4F4801F12CF5E0E7
:10146000E12CFF1629F0CE010196FE01E490EC017B
:10147000B12CA12C4E2D4170B6016A0D7B1DC4010B
:101480000E94DA09E694FFEFAF1ABF0A88E0A816B7
:10149000B10481F7F394EFEF8E1A9E0AF6E0FF1283
:1014A000DECF0A5F1F4F1093850100938401BCCFEC
:1014B000089590E080E00895FC0101900020E9F794
:1014C0003197AF01481B590BBC0180E096E00C94AA
:1014D000F1051F920F920FB60F9211248F939F93D5
:1014E0008091E1009091E100937F9093E10083FF70
:1014F0000FC01092E90091E09093EB001092EC0085
:1015000092E39093ED001092A80198E09093F00080
:1015100082FF22C093E09093E9009091F20099231A
:1015200019F09AE39093E80090919901992341F082
:1015300090919901915090939901911101C05D9AF8
:101540009091A701992341F09091A7019150909318
:10155000A701911101C0289A84FF18C08091E20070
:101560008E7E81608093E2008091E1008F7E809387
:10157000E10080919A018E7E806180939A019F9113
:101580008F910F900FBE0F901F90189580FFF7CF8F
:101590008091E2008E7E80618093E2008091E10084
:1015A0008E7E8093E10080919A018E7E8160E5CFEE
:1015B0001F920F920FB60F921124CF92DF92EF92EB
:1015C000FF920F931F932F933F934F935F936F93CC
:1015D0007F938F939F93AF93BF93EF93FF93CF939B
:1015E000DF93CDB7DEB76C97DEBFCDBF1092E900B9
:1015F0008091E80083FF25C068E0CE0145960E94F7
:10160000350582EF8093E8008D8987FF39C090917E
:10161000E80090FFFCCF982F907609F034C19E89A6
:101620004F89588D2F89F88C911131C0803861F520
:10163000809198018093F1001092F1008EEF8093D9
:10164000E8006C960FB6F894DEBF0FBECDBFDF91F9
:10165000CF91FF91EF91BF91AF919F918F917F912A
:101660006F915F914F913F912F911F910F91FF903B
:10167000EF90DF90CF900F900FBE0F901F901895B6
:101680009EEF9093E800C7CF1092F100D5CF913034
:1016900059F48111D3CF4130510581F680919801E1
:1016A0008D7F80939801CACF933049F48111C6CFC2
:1016B0004130510519F6809198018260F2CF953042
:1016C00041F48091E80080FFFCCF20682093E30084
:1016D000B5CF963009F0A9C00B8D1C8D22E0109279
:1016E000E9001092960110929501F2122EC010920C
:1016F0009401109293010E9404051F8299E099833E
:10170000FA8291E09E8390EA98879AEF99872091D8
:10171000950130919601275F3F4F3C832B838D834A
:101720001092E90010929601109295011093940185
:101730000093930149E050E0BE016F5F7F4F80E06E
:101740000E94DE040E94040579CF10939401009357
:1017500093010E941B04DC0112960D911C9101154E
:10176000110509F451C1D801ED91FC910480F58176
:10177000E02DBE016B5E7F4FC8010995009709F00F
:101780003EC1F80100851185EACFF3E0FF120EC0DB
:101790008F89882309F440C0823061F440E867E013
:1017A0008DEC96E00E94540D811148CF81E2809328
:1017B000EB0047CF813029F440E86BE081EC96E004
:1017C000F1CF833099F70E941B04DC011296ED9053
:1017D000FC908E010F5F1F4F6801E114F10479F056
:1017E000D701ED91FC910680F781E02DB801C7018A
:1017F0000995080F111DF701E084F184EECFD8019F
:101800001C92F60101900020E9F73197BF016C1995
:101810007D0940E0C601C6CF6BEA76E0FB0144914A
:1018200050E080E80E94DE0409CF973009F4BECF73
:10183000983021F481E08093F10000CF993009F0D5
:10184000FDCE837009F0B2CFEEE3F1E081E031E04C
:1018500096E32191222371F08093E9003093EB000D
:10186000DF0111972C912093EC009093ED008F5F96
:10187000873079F78EE78093EA001092EA008F892B
:101880008093A801DBCE8B8D9C8D1092E900109285
:101890009601109295019093940180939301898D04
:1018A000811192C08E899D89913A49F4813209F063
:1018B0007DCF47E050E06AE171E080E0B3CF913244
:1018C00009F074CF833269F48F89988DB0E0A0E07D
:1018D0008093160190931701A0931801B0931901FA
:1018E000ADCE803269F48091E80082FFFCCF67E0E2
:1018F0008AE191E00E9435058BEF8093E8009ECE4F
:10190000823209F09BCE8F8980932101EEEFFFE7B1
:10191000859194918B3F9C4D51F1E0E0F8E08091EE
:101920001A0190911B01A0911C01B0911D01803BF7
:101930009440A105B105F1F48091210180FD1AC008
:10194000EE3F8AE0F80789F587E797E79183808380
:10195000809160008093970188E19BE00FB6F89436
:10196000A895809360000FBE9093600067CEEEEF65
:10197000FAE0D5CF808191818737974709F05ECE15
:10198000A8958091600088618093600080919701A4
:1019900080936000EE3F2AE0F20789F08091FE0A12
:1019A0009091FF0A9183808349CE8081918187370E
:1019B000980751F29093FF0A8093FE0AC5CF1092C8
:1019C000FF0A1092FE0A3ACE0E941B04DC01129616
:1019D0000D911C910115110509F4E8CED801ED9186
:1019E000FC910190F081E02DBE016B5E7F4FC8013C
:1019F0000995811123CEF80100851185EBCF1816CA
:101A000019060CF41BCED2CEF1E0FF12BECE6FEA67
:101A100076E004CF0F920FB68F939F93EF93FF93CF
:101A200080918A018D5F8D3708F08D5780938A01F0
:101A3000EBE8F1E080818E4F808391819F4F91830D
:101A400082818F4F828383818F4F8383EFE8F1E020
:101A500080818F5F808381818F4F818382818F4FCF
:101A6000828383818F4F83838FB18F6066991C9BA4
:101A700088278F3681F480918901981B963068F011
:101A8000E0E0F8E087E78083818388E1809360006D
:101A9000F0936000FFCF90938901FF91EF919F91A8
:101AA0008F910FBE0F901895EF92FF920F931F9397
:101AB000CF93DF93F82E192FE62E042F81E0860FA7
:101AC000880F0E94B00483E00E94B004CF2DD12F74
:101AD000EC0EFD2EF11CCE15DF05B9F007FF13C08B
:101AE000FE0184910E94B004182F80E00E94B0048F
:101AF000812321968111EFCFDF91CF911F910F911B
:101B0000FF90EF9008958881EDCF81E0F5CFE0EB75
:101B1000F5E01382128288EE93E0A0E0B0E08483C7
:101B20009583A683B78388E491E0918380838FEFC8
:101B30009FEF95878487E0E0F6E0138212828AE5C2
:101B400091E0918380830895CDB7DEB7E497DEBF3F
:101B5000CDBF789483E084BD83E085BD81E0809330
:101B60006E00E1E8F0E083E08083E0E881E08083DC
:101B7000E1E983E08083E0E981E08083E1EC87E0D4
:101B80008083E3EC81E08083E0EC82E08083E2EC20
:101B900081E08083EAE787E0808380688083109219
:101BA000A8011092980110929A018091D70081604B
:101BB0008093D70080EA8093D80089B5806189BD81
:101BC00089B5826089BD09B400FEFDCF81E090E057
:101BD0000E9442058091D8008F7C80618093D8005C
:101BE0008091E000807F8093E0008091E1008E7E14
:101BF0008093E1008DE08093E200559A209A81EC79
:101C000080937C0081EF85B987EE84B982E38BB93C
:101C100082EF8AB9769A6E9880EF81BB10BA80E520
:101C20008CBD81E08DBD85E00E94C1095F9A85E091
:101C30000E94C1095C98ECE5F6E085918EBD00003C
:101C40000DB407FEFDCFE936C1F75C9A81E88093B9
:101C5000640081E0809365000E94D7090E94C40956
:101C600087FF15C05C9885EA8EBD00000DB407FEA5
:101C7000FDCF5C9A2E982F982D98809164008062F9
:101C80008093640081E083BF889513BEFCCF0E94DF
:101C9000C40982FF37C02D980E94C4098478843813
:101CA000A1F42D9A88EC0E94C1092F986FEF82E071
:101CB00090E00E94121584EF91E00E9442052F9A55
:101CC0000E94C40984788438D9F30E94C4098471BD
:101CD0008431A1F42D9A88EC0E94C1092E9860E00D
:101CE00082E090E00E94121584EF91E00E9442058C
:101CF0002E9A0E94C40984718431D9F388EC0E9421
:101D0000C109C5CF2D9A82E090E00E940A15882370
:101D100009F440C03E9A3F9A81E090E00E940A1583
:101D2000282F2470D22E81FF0AC021112E9801EF96
:101D30001FEF0E94C40986FF30C02E9A2F9A82E3BB
:101D40000E94C1090E94C4098111F9CF0E94960323
:101D500010928301109282011092850110928401E9
:101D600082E691E00E945C0A84E680930001BE0155
:101D70006F5F7F4F79A768A780918001882309F45E
:101D8000ACC01092800180E090E0892BA9F30E9402
:101D90000000EDCF3E983F98BFCFDD2029F0043002
:101DA000110511F42E9A2F9881E00E94A303302F81
:101DB0003770C32E9801A3E035952795AA95E1F7D2
:101DC000C9019695982F88279795879580559E4F9E
:101DD000F12CE12C2E3F4FEF340771F1AC014C5642
:101DE0005F4FDC0170E060E0F701E455FA4F5F01FE
:101DF000F501E60FF71FE491F0E03F010C2C02C063
:101E0000660C771C0A94E2F72F3F320739F054969C
:101E10009C905497962854969C925497CC2021F0ED
:101E2000FA019080972890826F5F7F4F4F5F5F4FDE
:101E3000119668357105E1F62F5F3F4F80589F4F2F
:101E4000F8E5EF0EF11C40EBE416F10409F0C2CF07
:101E50000E94D7098FE00E94C1090F5F1F4F09310F
:101E6000110509F066CFDD2011F02F9A2D9880E939
:101E700091E00E9442052D9A81E090E00E940A15AF
:101E800080FF5DCF8AE090E00E940A159FEF980FD7
:101E90009E3F08F054CF22E330E030938501209339
:101EA000840128E330E030938301209382010AE02B
:101EB00010E0682F80E096E00E94F5090F5F1F4F49
:101EC000C8010E940A150031110599F70E94D7092F
:101ED00088EE93E00E94420532CF90918B01809171
:101EE0008101792F781B872F20910001721748F408
:101EF0008F5F821708F047CF81E083BF889513BEBC
:101F000042CF81E08093800190938101EEE7F1E080
:101F10008081918101968083918380918801809353
:101F200087010E94C4098093880180E20E94CC0945
:101F3000882339F080918601882319F0815080939D
:101F4000860180E40E94CC09882339F080918601C3
:101F5000843118F48F5F809386010E94C40987FF43
:101F60000AC0E0918601F0E0EF5FFE4F80818F377D
:101F700011F08F5F80830E94C40984FF14C0E09138
:101F8000860181E090E0E11102C090E080E08F5F87
:101F90009E4FDC018C91882331F0F0E0EF5FFE4F23
:101FA00080818150808388E00E94CC09882309F4D5
:101FB000A7C38DB69EB69AAA89AA2DB73EB7235D50
:101FC00031090FB6F8943EBF0FBE2DBF4DB75EB7B7
:101FD0004F5F5F4F5A0101E011E0D8010D900020E2
:101FE000E9F78D010250114083E08093A9018DE152
:101FF0008093AA011092AB015093AF014093AE01C0
:10200000EDB7FEB7E754F1090FB6F894FEBF0FBE67
:10201000EDBF319618A219A21AA21BA287E490E084
:102020009DA38CA3FFA3EEA3DF011D928A95E9F780
:10203000F801EF5FFE4F6F01F1E08F2EF1E09F2E70
:1020400076018E149F04C1F424E041E050E060E08A
:1020500070E0CE0180960E943D09A80170E060E02A
:102060002AE0CE0180960E943D09670120E050E001
:1020700040E03AE0932E45C0D7018E917D01805318
:102080008A30F8F28C149D0409F04FC07E0130E2D2
:10209000E30EF11C24E042E050E060E070E0C70194
:1020A0000E943D09A80170E060E029E0C7010E949C
:1020B0003D0981E0C82E81E0D82E912C50E040E00F
:1020C0009DE2892E7E2C6F2C6AC0F60131916F0142
:1020D000949EC001959E900D1124AC01405351096E
:1020E000430F511D37FD5A952F5F233051F470E097
:1020F00060E02AE0CE0180960E943D0920E050E099
:1021000040E0C6018E199F0980179107F0F2222343
:1021100051F0822F880F280F2F5F70E060E0CE0112
:1021200080960E943D0980E062C0D6018E916D01CB
:102130000E94AA098F3F09F0A5CF24E044E050E0B7
:1021400060E070E0CE0180960E943D09A80170E039
:1021500060E028E0CE0180960E943D0921E0E22E59
:1021600021E0F22E3DC0849E7001859EF00C11246A
:10217000F60181916F010E94AA09A701480F511D24
:1021800087FD5A95F1E09F121BC070E060E02BE0E4
:10219000872D962D0E943D09912C50E040E0C6010C
:1021A0008150914080179107F0F2992039F070E04A
:1021B00060E026E0CE0180960E943D0981E017C0D4
:1021C00099249394ECCFD7014D917D01042E000CFE
:1021D000550B660B770B28E0CE0180960E943D09D7
:1021E000C701815091408017910768F382E0809386
:1021F000AC0188A199A1AAA1BBA128EB31E040E0E4
:1022000050E0281B390B4A0B5B0B2530310541058B
:10221000510520F024E030E040E050E040E050E0A4
:10222000BA01CE0180960E943D0928A12195277010
:1022300040E050E0BA01CE0180960E943D091CEEBC
:102240000DEF88A199A1AAA1BBA1883B9140A1054E
:10225000B10508F499C22DE130E040E050E0288F4C
:10226000398F4A8F5B8F2AE630E03D8F2C8FBF8EEF
:10227000AE8E8AE6D501E82F1D92EA95E9F74DB7B3
:102280005EB74A5651090FB6F8945EBF0FBE4DBFF8
:10229000EDB7FEB731964DE150E060E070E0488B5D
:1022A000598B6A8B7B8B3D8B2C8BFF8BEE8BDF01ED
:1022B0001D928A95E9F710E0812F80958170082F93
:1022C000212F46E0BE01605F7F4FCE0148960E94FD
:1022D000920726E0412FBE01605F7F4FCE014896F6
:1022E0000E9492071F5F1D3139F723E043E0BE01D2
:1022F000605F7F4FCE0148960E94AF0823E049E11E
:10230000BE01605F7F4FCE0148960E94AF0829E171
:1023100043E0BE01605F7F4FCE0148960E94AF0848
:102320008DB69EB614E1EEEFEE2EFF24FA947EEF0A
:10233000C72EDD24DA94AA24BB24AE18BF085E2D74
:102340004F2DF7FE02C05A2D4B2D9601D7FE04C02B
:10235000222733272C193D09852F942F82179307A5
:102360000CF4C90101E0019709F400E046E14C0DCD
:10237000212FBE01605F7F4FCE0148960E949207D9
:10238000BFEFCB1ADB0AE3E0CE16D104C1F6FFEFB4
:10239000EF1AFF0A1F5F23E0E216F10441F60FB6C1
:1023A000F8949EBE0FBE8DBE20E041E0BE01605F8E
:1023B0007F4FCE0148960E94AA078DB69EB69BA677
:1023C0008AA64CA15DA12DB73EB7241B350B0FB6D5
:1023D000F8943EBF0FBE2DBF0DB71EB70F5F1F4F46
:1023E00070E060E0C8010E9491158FE0A8A5B9A532
:1023F0001D928A95E9F781E08F876FE0762E21E0C4
:1024000030E0FE01319640E07901FF24A08167E0D1
:1024100070E090E080E0B0E06C01CC0CDD1C880F37
:10242000892F881F990B91955DE1852E99249394AE
:10243000889D5001899DB00C989DB00C1124AC244E
:10244000BD246701062E02C0D594C7940A94E2F712
:1024500051E0C522DD24CA9EC001CB9E900DDA9EBC
:10246000900D11248A259B2561507109A8F681934E
:102470004E3029F0DF011197908189278C934F5FAF
:102480004F3021F6B901660F771F220F232F221F2D
:10249000330B3195ADE1B1E02A9FC0012B9F900D28
:1024A0003A9F900D11249B01282739277A947110A7
:1024B000A8CFEEA1FFA1FEA7EDA7CF01C796F80117
:1024C0002DA53EA5D9014D919D0141938A179B07EA
:1024D000C9F71801B7E32B0E311C4801E5E48E0E55
:1024E000911C2801FFE04F0E511CADA5BEA56D90BB
:1024F000BEA7ADA7F80187A96826D10111968C91D6
:1025000011978D938A169B06C9F7D4011C92D801A6
:10251000FE0131965F01712CF501E1905F0147E00A
:1025200050E090E080E0F12C6C01CC0CDD1C880FB9
:10253000892F881F990B9195EDE1F1E08E9FB001F5
:102540008F9F700D9E9F700D11246C257D2563015A
:10255000042E02C0D594C7940A94E2F7F1E0CF228A
:10256000DD24CE9CC001CF9C900DDE9C900D1124EB
:102570008627972741505109B8F6D7966C91D7977F
:102580008627D7968C93D79711964A165B0621F625
:102590004DA55EA52417350709F0A7CF4CA15DA175
:1025A000B8018EA19FA10E94881587E392E0A0E068
:1025B000B0E088A399A3AAA3BBA38AA49BA40FB647
:1025C000F8949EBE0FBE8DBE28A039A04AA05BA085
:1025D0008EA09FA09BA68AA6C88C2C2D2150330BC1
:1025E0008901812C912C5401DD24DA94DC0C101625
:1025F00011060CF4D4C0612C912C2FEF3FEF4FEF5C
:102600005FE72DA73EA74FA758AB292D41E0BE019C
:10261000605F7F4FCE0148960E94AA07492DBE01F8
:10262000605F7F4FCE0148960E944C06188D00E0F7
:10263000C12CD12C7601011708F40DC100E001175F
:1026400008F438C1812CEFEFECA7312C212C811636
:1026500008F4CBC1119FC001112444E1842E829C57
:10266000B001839C700D112429E0289FA001299FAF
:10267000500D1124ABE0A89F9001A99F300D1124AB
:102680006417750708F4B7C12617370708F4B3C1F4
:102690000D2C000CEE08FF082DA53EA54FA558A94E
:1026A000C216D306E406F5062CF4CDA6DEA6EFA6E8
:1026B000F8AA692C492DBE01605F7F4FCE01489674
:1026C0000E944C06939438E093129FCF6092AD0124
:1026D000262D41E0BE01605F7F4FCE0148960E94EB
:1026E000AA07462DBE01605F7F4FCE0148960E942B
:1026F0004C0689A89AA80FB6F8949EBE0FBE8DBE50
:102700000E94960310928501109284018AE090E065
:10271000909383018093820181E091E00E945C0AA2
:102720008091860126E0829FC0011124909385014B
:102730008093840184E190E09093830180938201EF
:1027400086E791E00E945C0AF12C8091AA01F816BC
:1027500008F05DC1E12C0F2D10E0075E1F4F809146
:10276000AA01E81608F051C16F2D8E2D0E94B20308
:102770002E2D30E041E0811101C040E0B801C901D7
:102780000E94DA09E394EBCF412F50E070E060E063
:1027900028E0CE0180960E943D09102752CD0630D8
:1027A000110511F405E010E0E12C3EEF300F3CA7DD
:1027B000C8019695879541E08427582F51705DA7F1
:1027C000EC1418F00250110912CFF02E6D2C6E1877
:1027D00081E065E06F1508F480E07DA5762C781324
:1027E00001C07E2C472D6F2DCE0140960E941E0603
:1027F00081112BC082149304A404B50430F5D501D3
:10280000C40173E0B695A795979587957A95D1F70A
:10281000EAA5FBA58E0F9F1FDC012C9130E0C401BF
:10282000809590958770992702C0359527958A9550
:10283000E2F72170472D6F2DCE0148960E945D076B
:10284000BFEF8B1A9B0AAB0ABB0AFA94ECA5FE12E7
:10285000BFCFE394B5CF402F60E0CE0148960E94F1
:102860001E06882EBB24B394AA24A394A11610F0AC
:102870000F5FE1CE402F6A2DCE0148960E941E06C2
:10288000881115C0B39435E0B31208C043E0C40EFC
:10289000D11CE11CF11CA394882EE8CF55E05B15F8
:1028A000D0F76FEFC61AD60AE60AF60AF4CFBB24B1
:1028B000B394F1CF40E0602FCE0148960E941E06EF
:1028C000882EBB24B394AA24A394A11610F00F5F02
:1028D000B6CE4A2D602FCE0148960E941E06881162
:1028E00015C0B39475E0B71208C093E0C90ED11CAF
:1028F000E11CF11CA394882EE8CFA5E0AB15D0F71E
:10290000BFEFCB1ADB0AEB0AFB0AF4CFBB24B3946C
:10291000F1CF482D602FCE0148960E941E06782EDA
:10292000002331F1882021F14CA5FFEFF00FFAA729
:102930006F2FCE0148960E941E068BAB4CA5602FD0
:10294000CE0148960E941E068CAB482D6AA5CE018A
:1029500048960E941E062BA972120AC03CA9731247
:1029600007C0781205C043E0C40ED11CE11CF11C65
:10297000C201880F991F97702C014728AA0CBB1C15
:1029800057E0B522402F682DCE0148960E941E06C2
:10299000A82A0A30E0F06DE54616510429F070EDE2
:1029A000471675E0570629F488E2C80ED11CE11CD1
:1029B000F11C9DE5A916B10429F0A0EDAA16A5E029
:1029C000BA0629F4B8E2CB0ED11CE11CF11C772029
:1029D00019F0EFEF2E1A3E0A0F5F011708F499CF96
:1029E0008394FCA5FF5FFCA732CE00E0B12CA12CA4
:1029F000512C412CF2CFBAE0CB0ED11CE11CF11CC2
:102A0000481B590B280F391F3BCEF3949ECE0E94D2
:102A1000D709B9C9F999FECF92BD81BDF89A992716
:102A200080B50895262FF999FECF92BD81BDF89A01
:102A3000019700B4021639F01FBA20BD0FB6F89402
:102A4000FA9AF99A0FBE08950E942F15A59F900D2E
:102A5000B49F900DA49F800D911D11240895A29FF5
:102A6000B001B39FC001A39F700D811D1124911D62
:102A7000B29F700D811D1124911D0895DB018F936C
:102A80009F930E942415BF91AF91A29F800D911D2D
:102A9000A39F900DB29F900D11240895991B79E08A
:102AA00004C0991F961708F0961B881F7A95C9F7DE
:102AB0008095089597FB072E16F4009407D077FDB4
:102AC00009D00E94741507FC05D03EF490958195BD
:102AD0009F4F0895709561957F4F0895EE0FFF1FEA
:102AE0000590F491E02D0994AA1BBB1B51E107C08E
:102AF000AA1FBB1FA617B70710F0A61BB70B881F8E
:102B0000991F5A95A9F780959095BC01CD0108951C
:102B1000FB01DC0102C001900D9241505040D8F7FA
:102B20000895DC0101C06D9341505040E0F70895D5
:042B3000F894FFCF47
:102B34001048454C4C4F2041524455424F59202097
:102B4400202020202000FFFFFFFF00E10000000004
:102B5400000024FFFFFF2526FFFFFFFF2728FF2992
:102B64002A2BFFFFFFFFFFFFFFFFFFFF2C00C180A9
:102B740081000000000000002F04560550044504A5
:102B840096045404720400000000F509F105590A82
:102B9400580A557365206172726F777320746F20C1
:082BA400656469743A005E00EB
:00000001FF
